{
  "_format": "hh-sol-artifact-1",
  "contractName": "Car",
  "sourceName": "contracts/Car.sol",
  "abi": [
    {
      "anonymous": false,
      "inputs": [
        {
          "indexed": false,
          "internalType": "uint256",
          "name": "carId",
          "type": "uint256"
        },
        {
          "indexed": true,
          "internalType": "address",
          "name": "bookedBy",
          "type": "address"
        },
        {
          "indexed": false,
          "internalType": "uint256",
          "name": "bookedAt",
          "type": "uint256"
        },
        {
          "indexed": false,
          "internalType": "uint256",
          "name": "amount",
          "type": "uint256"
        },
        {
          "indexed": false,
          "internalType": "uint256",
          "name": "duration",
          "type": "uint256"
        },
        {
          "indexed": false,
          "internalType": "string",
          "name": "name",
          "type": "string"
        },
        {
          "indexed": false,
          "internalType": "string",
          "name": "category",
          "type": "string"
        }
      ],
      "name": "CarBooked",
      "type": "event"
    },
    {
      "inputs": [
        {
          "internalType": "string",
          "name": "name",
          "type": "string"
        },
        {
          "internalType": "string",
          "name": "description",
          "type": "string"
        },
        {
          "internalType": "string",
          "name": "category",
          "type": "string"
        },
        {
          "internalType": "uint256",
          "name": "pricePerHour",
          "type": "uint256"
        }
      ],
      "name": "addCar",
      "outputs": [],
      "stateMutability": "nonpayable",
      "type": "function"
    },
    {
      "inputs": [
        {
          "internalType": "uint256",
          "name": "carId",
          "type": "uint256"
        },
        {
          "internalType": "uint256",
          "name": "durationInHours",
          "type": "uint256"
        }
      ],
      "name": "bookCar",
      "outputs": [],
      "stateMutability": "payable",
      "type": "function"
    },
    {
      "inputs": [
        {
          "internalType": "uint256",
          "name": "",
          "type": "uint256"
        }
      ],
      "name": "cars",
      "outputs": [
        {
          "internalType": "string",
          "name": "name",
          "type": "string"
        },
        {
          "internalType": "string",
          "name": "description",
          "type": "string"
        },
        {
          "internalType": "string",
          "name": "category",
          "type": "string"
        },
        {
          "internalType": "uint256",
          "name": "bookedAt",
          "type": "uint256"
        },
        {
          "internalType": "uint256",
          "name": "duration",
          "type": "uint256"
        },
        {
          "internalType": "address",
          "name": "bookedBy",
          "type": "address"
        },
        {
          "internalType": "uint256",
          "name": "pricePerHour",
          "type": "uint256"
        },
        {
          "internalType": "uint256",
          "name": "id",
          "type": "uint256"
        }
      ],
      "stateMutability": "view",
      "type": "function"
    },
    {
      "inputs": [],
      "name": "carsCount",
      "outputs": [
        {
          "internalType": "uint256",
          "name": "",
          "type": "uint256"
        }
      ],
      "stateMutability": "view",
      "type": "function"
    },
    {
      "inputs": [
        {
          "internalType": "uint256",
          "name": "x",
          "type": "uint256"
        },
        {
          "internalType": "uint256",
          "name": "y",
          "type": "uint256"
        }
      ],
      "name": "division",
      "outputs": [
        {
          "internalType": "uint256[2]",
          "name": "",
          "type": "uint256[2]"
        }
      ],
      "stateMutability": "pure",
      "type": "function"
    },
    {
      "inputs": [
        {
          "internalType": "uint256",
          "name": "itemStartId",
          "type": "uint256"
        },
        {
          "internalType": "uint256",
          "name": "limit",
          "type": "uint256"
        },
        {
          "internalType": "uint256",
          "name": "currentTime",
          "type": "uint256"
        }
      ],
      "name": "getAvailableCars",
      "outputs": [
        {
          "components": [
            {
              "internalType": "string",
              "name": "name",
              "type": "string"
            },
            {
              "internalType": "string",
              "name": "description",
              "type": "string"
            },
            {
              "internalType": "string",
              "name": "category",
              "type": "string"
            },
            {
              "internalType": "uint256",
              "name": "bookedAt",
              "type": "uint256"
            },
            {
              "internalType": "uint256",
              "name": "duration",
              "type": "uint256"
            },
            {
              "internalType": "address",
              "name": "bookedBy",
              "type": "address"
            },
            {
              "internalType": "uint256",
              "name": "pricePerHour",
              "type": "uint256"
            },
            {
              "internalType": "uint256",
              "name": "id",
              "type": "uint256"
            }
          ],
          "internalType": "struct Car.CarStruct[]",
          "name": "",
          "type": "tuple[]"
        }
      ],
      "stateMutability": "view",
      "type": "function"
    },
    {
      "inputs": [],
      "name": "isOwner",
      "outputs": [
        {
          "internalType": "bool",
          "name": "",
          "type": "bool"
        }
      ],
      "stateMutability": "view",
      "type": "function"
    }
  ],
  "bytecode": "0x608060405234801561001057600080fd5b50336000806101000a81548173ffffffffffffffffffffffffffffffffffffffff021916908373ffffffffffffffffffffffffffffffffffffffff160217905550611aa1806100606000396000f3fe6080604052600436106100705760003560e01c8063c3d97a271161004e578063c3d97a27146100f9578063d2d50bd814610124578063e00680521461014d578063f7746e361461018a57610070565b8063551ab3cf146100755780638f32d59b14610091578063b3d81929146100bc575b600080fd5b61008f600480360381019061008a9190610e32565b6101ce565b005b34801561009d57600080fd5b506100a6610427565b6040516100b39190610e8d565b60405180910390f35b3480156100c857600080fd5b506100e360048036038101906100de9190610ea8565b61047e565b6040516100f09190611164565b60405180910390f35b34801561010557600080fd5b5061010e610896565b60405161011b9190611195565b60405180910390f35b34801561013057600080fd5b5061014b600480360381019061014691906112e5565b61089c565b005b34801561015957600080fd5b50610174600480360381019061016f9190610e32565b610a7b565b604051610181919061143c565b60405180910390f35b34801561019657600080fd5b506101b160048036038101906101ac9190611457565b610ac8565b6040516101c59897969594939291906114dd565b60405180910390f35b60004290506000603c80846101e3919061159f565b6101ed919061159f565b9050600081836101fd91906115f9565b90506000349050838211610246576040517f08c379a000000000000000000000000000000000000000000000000000000000815260040161023d9061169b565b60405180910390fd5b600060016000888152602001908152602001600020905085816006015461026d919061159f565b82146102ae576040517f08c379a00000000000000000000000000000000000000000000000000000000081526004016102a590611707565b60405180910390fd5b848482600301546102bf91906115f9565b1115610300576040517f08c379a00000000000000000000000000000000000000000000000000000000081526004016102f790611773565b60405180910390fd5b60008054906101000a900473ffffffffffffffffffffffffffffffffffffffff1673ffffffffffffffffffffffffffffffffffffffff166108fc839081150290604051600060405180830381858888f19350505050158015610366573d6000803e3d6000fd5b50338160050160006101000a81548173ffffffffffffffffffffffffffffffffffffffff021916908373ffffffffffffffffffffffffffffffffffffffff1602179055508581600401819055508481600301819055503373ffffffffffffffffffffffffffffffffffffffff167f885ac27da62cad5c9244867b153b9a64146620bed9b5efaedbd7646c850004988883600301548588866000018760020160405161041696959493929190611888565b60405180910390a250505050505050565b60008060009054906101000a900473ffffffffffffffffffffffffffffffffffffffff1673ffffffffffffffffffffffffffffffffffffffff163373ffffffffffffffffffffffffffffffffffffffff1614905090565b606060008367ffffffffffffffff81111561049c5761049b6111ba565b5b6040519080825280602002602001820160405280156104d557816020015b6104c2610cc8565b8152602001906001900390816104ba5790505b50905060005b60025486111580156104ec57508481105b156107d95783603c80600160008a815260200190815260200160002060040154610516919061159f565b610520919061159f565b600160008981526020019081526020016000206003015461054191906115f9565b116107c6576001600087815260200190815260200160002060405180610100016040529081600082018054610575906117c2565b80601f01602080910402602001604051908101604052809291908181526020018280546105a1906117c2565b80156105ee5780601f106105c3576101008083540402835291602001916105ee565b820191906000526020600020905b8154815290600101906020018083116105d157829003601f168201915b50505050508152602001600182018054610607906117c2565b80601f0160208091040260200160405190810160405280929190818152602001828054610633906117c2565b80156106805780601f1061065557610100808354040283529160200191610680565b820191906000526020600020905b81548152906001019060200180831161066357829003601f168201915b50505050508152602001600282018054610699906117c2565b80601f01602080910402602001604051908101604052809291908181526020018280546106c5906117c2565b80156107125780601f106106e757610100808354040283529160200191610712565b820191906000526020600020905b8154815290600101906020018083116106f557829003601f168201915b5050505050815260200160038201548152602001600482015481526020016005820160009054906101000a900473ffffffffffffffffffffffffffffffffffffffff1673ffffffffffffffffffffffffffffffffffffffff1673ffffffffffffffffffffffffffffffffffffffff168152602001600682015481526020016007820154815250508282815181106107ac576107ab6118f7565b5b602002602001018190525080806107c290611926565b9150505b85806107d190611926565b9650506104db565b60008167ffffffffffffffff8111156107f5576107f46111ba565b5b60405190808252806020026020018201604052801561082e57816020015b61081b610cc8565b8152602001906001900390816108135790505b50905060005b828110156108885783818151811061084f5761084e6118f7565b5b602002602001015182828151811061086a576108696118f7565b5b6020026020010181905250808061088090611926565b915050610834565b508093505050509392505050565b60025481565b3373ffffffffffffffffffffffffffffffffffffffff1660008054906101000a900473ffffffffffffffffffffffffffffffffffffffff1673ffffffffffffffffffffffffffffffffffffffff161461092a576040517f08c379a0000000000000000000000000000000000000000000000000000000008152600401610921906119ba565b60405180910390fd5b6002600081548092919061093d90611926565b91905055506040518061010001604052808581526020018481526020018381526020016000815260200160008152602001600073ffffffffffffffffffffffffffffffffffffffff16815260200182815260200160025481525060016000600254815260200190815260200160002060008201518160000190805190602001906109c8929190610d23565b5060208201518160010190805190602001906109e5929190610d23565b506040820151816002019080519060200190610a02929190610d23565b50606082015181600301556080820151816004015560a08201518160050160006101000a81548173ffffffffffffffffffffffffffffffffffffffff021916908373ffffffffffffffffffffffffffffffffffffffff16021790555060c0820151816006015560e0820151816007015590505050505050565b610a83610da9565b60008284610a919190611a09565b905060008385610aa19190611a3a565b90506000604051806040016040528084815260200183815250905080935050505092915050565b6001602052806000526040600020600091509050806000018054610aeb906117c2565b80601f0160208091040260200160405190810160405280929190818152602001828054610b17906117c2565b8015610b645780601f10610b3957610100808354040283529160200191610b64565b820191906000526020600020905b815481529060010190602001808311610b4757829003601f168201915b505050505090806001018054610b79906117c2565b80601f0160208091040260200160405190810160405280929190818152602001828054610ba5906117c2565b8015610bf25780601f10610bc757610100808354040283529160200191610bf2565b820191906000526020600020905b815481529060010190602001808311610bd557829003601f168201915b505050505090806002018054610c07906117c2565b80601f0160208091040260200160405190810160405280929190818152602001828054610c33906117c2565b8015610c805780601f10610c5557610100808354040283529160200191610c80565b820191906000526020600020905b815481529060010190602001808311610c6357829003601f168201915b5050505050908060030154908060040154908060050160009054906101000a900473ffffffffffffffffffffffffffffffffffffffff16908060060154908060070154905088565b6040518061010001604052806060815260200160608152602001606081526020016000815260200160008152602001600073ffffffffffffffffffffffffffffffffffffffff16815260200160008152602001600081525090565b828054610d2f906117c2565b90600052602060002090601f016020900481019282610d515760008555610d98565b82601f10610d6a57805160ff1916838001178555610d98565b82800160010185558215610d98579182015b82811115610d97578251825591602001919060010190610d7c565b5b509050610da59190610dcb565b5090565b6040518060400160405280600290602082028036833780820191505090505090565b5b80821115610de4576000816000905550600101610dcc565b5090565b6000604051905090565b600080fd5b600080fd5b6000819050919050565b610e0f81610dfc565b8114610e1a57600080fd5b50565b600081359050610e2c81610e06565b92915050565b60008060408385031215610e4957610e48610df2565b5b6000610e5785828601610e1d565b9250506020610e6885828601610e1d565b9150509250929050565b60008115159050919050565b610e8781610e72565b82525050565b6000602082019050610ea26000830184610e7e565b92915050565b600080600060608486031215610ec157610ec0610df2565b5b6000610ecf86828701610e1d565b9350506020610ee086828701610e1d565b9250506040610ef186828701610e1d565b9150509250925092565b600081519050919050565b600082825260208201905092915050565b6000819050602082019050919050565b600081519050919050565b600082825260208201905092915050565b60005b83811015610f61578082015181840152602081019050610f46565b83811115610f70576000848401525b50505050565b6000601f19601f8301169050919050565b6000610f9282610f27565b610f9c8185610f32565b9350610fac818560208601610f43565b610fb581610f76565b840191505092915050565b610fc981610dfc565b82525050565b600073ffffffffffffffffffffffffffffffffffffffff82169050919050565b6000610ffa82610fcf565b9050919050565b61100a81610fef565b82525050565b600061010083016000830151848203600086015261102e8282610f87565b915050602083015184820360208601526110488282610f87565b915050604083015184820360408601526110628282610f87565b91505060608301516110776060860182610fc0565b50608083015161108a6080860182610fc0565b5060a083015161109d60a0860182611001565b5060c08301516110b060c0860182610fc0565b5060e08301516110c360e0860182610fc0565b508091505092915050565b60006110da8383611010565b905092915050565b6000602082019050919050565b60006110fa82610efb565b6111048185610f06565b93508360208202850161111685610f17565b8060005b85811015611152578484038952815161113385826110ce565b945061113e836110e2565b925060208a0199505060018101905061111a565b50829750879550505050505092915050565b6000602082019050818103600083015261117e81846110ef565b905092915050565b61118f81610dfc565b82525050565b60006020820190506111aa6000830184611186565b92915050565b600080fd5b600080fd5b7f4e487b7100000000000000000000000000000000000000000000000000000000600052604160045260246000fd5b6111f282610f76565b810181811067ffffffffffffffff82111715611211576112106111ba565b5b80604052505050565b6000611224610de8565b905061123082826111e9565b919050565b600067ffffffffffffffff8211156112505761124f6111ba565b5b61125982610f76565b9050602081019050919050565b82818337600083830152505050565b600061128861128384611235565b61121a565b9050828152602081018484840111156112a4576112a36111b5565b5b6112af848285611266565b509392505050565b600082601f8301126112cc576112cb6111b0565b5b81356112dc848260208601611275565b91505092915050565b600080600080608085870312156112ff576112fe610df2565b5b600085013567ffffffffffffffff81111561131d5761131c610df7565b5b611329878288016112b7565b945050602085013567ffffffffffffffff81111561134a57611349610df7565b5b611356878288016112b7565b935050604085013567ffffffffffffffff81111561137757611376610df7565b5b611383878288016112b7565b925050606061139487828801610e1d565b91505092959194509250565b600060029050919050565b600081905092915050565b6000819050919050565b60006113cc8383610fc0565b60208301905092915050565b6000602082019050919050565b6113ee816113a0565b6113f881846113ab565b9250611403826113b6565b8060005b8381101561143457815161141b87826113c0565b9650611426836113d8565b925050600181019050611407565b505050505050565b600060408201905061145160008301846113e5565b92915050565b60006020828403121561146d5761146c610df2565b5b600061147b84828501610e1d565b91505092915050565b600082825260208201905092915050565b60006114a082610f27565b6114aa8185611484565b93506114ba818560208601610f43565b6114c381610f76565b840191505092915050565b6114d781610fef565b82525050565b60006101008201905081810360008301526114f8818b611495565b9050818103602083015261150c818a611495565b905081810360408301526115208189611495565b905061152f6060830188611186565b61153c6080830187611186565b61154960a08301866114ce565b61155660c0830185611186565b61156360e0830184611186565b9998505050505050505050565b7f4e487b7100000000000000000000000000000000000000000000000000000000600052601160045260246000fd5b60006115aa82610dfc565b91506115b583610dfc565b9250817fffffffffffffffffffffffffffffffffffffffffffffffffffffffffffffffff04831182151516156115ee576115ed611570565b5b828202905092915050565b600061160482610dfc565b915061160f83610dfc565b9250827fffffffffffffffffffffffffffffffffffffffffffffffffffffffffffffffff0382111561164457611643611570565b5b828201905092915050565b7f506c656173652073656e64207468652076616c6964206475726174696f6e0000600082015250565b6000611685601e83611484565b91506116908261164f565b602082019050919050565b600060208201905081810360008301526116b481611678565b9050919050565b7f496e76616c696420416d6f756e74210000000000000000000000000000000000600082015250565b60006116f1600f83611484565b91506116fc826116bb565b602082019050919050565b60006020820190508181036000830152611720816116e4565b9050919050565b7f436172206973206e6f7420617661696c61626c65000000000000000000000000600082015250565b600061175d601483611484565b915061176882611727565b602082019050919050565b6000602082019050818103600083015261178c81611750565b9050919050565b7f4e487b7100000000000000000000000000000000000000000000000000000000600052602260045260246000fd5b600060028204905060018216806117da57607f821691505b6020821081036117ed576117ec611793565b5b50919050565b60008190508160005260206000209050919050565b60008154611815816117c2565b61181f8186611484565b9450600182166000811461183a576001811461184c5761187f565b60ff198316865260208601935061187f565b611855856117f3565b60005b8381101561187757815481890152600182019150602081019050611858565b808801955050505b50505092915050565b600060c08201905061189d6000830189611186565b6118aa6020830188611186565b6118b76040830187611186565b6118c46060830186611186565b81810360808301526118d68185611808565b905081810360a08301526118ea8184611808565b9050979650505050505050565b7f4e487b7100000000000000000000000000000000000000000000000000000000600052603260045260246000fd5b600061193182610dfc565b91507fffffffffffffffffffffffffffffffffffffffffffffffffffffffffffffffff820361196357611962611570565b5b600182019050919050565b7f596f7520617265206e6f7420616c6c6f77656421000000000000000000000000600082015250565b60006119a4601483611484565b91506119af8261196e565b602082019050919050565b600060208201905081810360008301526119d381611997565b9050919050565b7f4e487b7100000000000000000000000000000000000000000000000000000000600052601260045260246000fd5b6000611a1482610dfc565b9150611a1f83610dfc565b925082611a2f57611a2e6119da565b5b828204905092915050565b6000611a4582610dfc565b9150611a5083610dfc565b925082611a6057611a5f6119da565b5b82820690509291505056fea2646970667358221220a06a8e58af1c8b56d1a6c0e3393aadd6f42ac7d16d8efef90c2203f7cc63be0364736f6c634300080d0033",
  "linkReferences": {},
  "deployedLinkReferences": {}
}