{
  "_format": "hh-sol-artifact-1",
  "contractName": "Car",
  "sourceName": "contracts/Car.sol",
  "abi": [
    {
      "anonymous": false,
      "inputs": [
        {
          "indexed": false,
          "internalType": "uint256",
          "name": "carId",
          "type": "uint256"
        },
        {
          "indexed": true,
          "internalType": "address",
          "name": "bookedBy",
          "type": "address"
        },
        {
          "indexed": false,
          "internalType": "uint256",
          "name": "bookedAt",
          "type": "uint256"
        },
        {
          "indexed": false,
          "internalType": "uint256",
          "name": "amount",
          "type": "uint256"
        },
        {
          "indexed": false,
          "internalType": "uint256",
          "name": "duration",
          "type": "uint256"
        },
        {
          "indexed": false,
          "internalType": "string",
          "name": "name",
          "type": "string"
        },
        {
          "indexed": false,
          "internalType": "string",
          "name": "category",
          "type": "string"
        }
      ],
      "name": "CarBooked",
      "type": "event"
    },
    {
      "inputs": [
        {
          "internalType": "string",
          "name": "name",
          "type": "string"
        },
        {
          "internalType": "string",
          "name": "description",
          "type": "string"
        },
        {
          "internalType": "string",
          "name": "category",
          "type": "string"
        },
        {
          "internalType": "uint256",
          "name": "pricePerHour",
          "type": "uint256"
        }
      ],
      "name": "addCar",
      "outputs": [],
      "stateMutability": "nonpayable",
      "type": "function"
    },
    {
      "inputs": [
        {
          "internalType": "uint256",
          "name": "carId",
          "type": "uint256"
        },
        {
          "internalType": "uint256",
          "name": "durationInHours",
          "type": "uint256"
        }
      ],
      "name": "bookCar",
      "outputs": [],
      "stateMutability": "payable",
      "type": "function"
    },
    {
      "inputs": [
        {
          "internalType": "uint256",
          "name": "",
          "type": "uint256"
        }
      ],
      "name": "cars",
      "outputs": [
        {
          "internalType": "string",
          "name": "name",
          "type": "string"
        },
        {
          "internalType": "string",
          "name": "description",
          "type": "string"
        },
        {
          "internalType": "string",
          "name": "category",
          "type": "string"
        },
        {
          "internalType": "uint256",
          "name": "bookedAt",
          "type": "uint256"
        },
        {
          "internalType": "uint256",
          "name": "duration",
          "type": "uint256"
        },
        {
          "internalType": "address",
          "name": "bookedBy",
          "type": "address"
        },
        {
          "internalType": "uint256",
          "name": "pricePerHour",
          "type": "uint256"
        },
        {
          "internalType": "uint256",
          "name": "id",
          "type": "uint256"
        }
      ],
      "stateMutability": "view",
      "type": "function"
    },
    {
      "inputs": [],
      "name": "carsCount",
      "outputs": [
        {
          "internalType": "uint256",
          "name": "",
          "type": "uint256"
        }
      ],
      "stateMutability": "view",
      "type": "function"
    },
    {
      "inputs": [
        {
          "internalType": "uint256",
          "name": "x",
          "type": "uint256"
        },
        {
          "internalType": "uint256",
          "name": "y",
          "type": "uint256"
        }
      ],
      "name": "division",
      "outputs": [
        {
          "internalType": "uint256[2]",
          "name": "",
          "type": "uint256[2]"
        }
      ],
      "stateMutability": "pure",
      "type": "function"
    },
    {
      "inputs": [
        {
          "internalType": "uint256",
          "name": "itemStartId",
          "type": "uint256"
        },
        {
          "internalType": "uint256",
          "name": "limit",
          "type": "uint256"
        },
        {
          "internalType": "uint256",
          "name": "currentTime",
          "type": "uint256"
        }
      ],
      "name": "getAvailableCars",
      "outputs": [
        {
          "components": [
            {
              "internalType": "string",
              "name": "name",
              "type": "string"
            },
            {
              "internalType": "string",
              "name": "description",
              "type": "string"
            },
            {
              "internalType": "string",
              "name": "category",
              "type": "string"
            },
            {
              "internalType": "uint256",
              "name": "bookedAt",
              "type": "uint256"
            },
            {
              "internalType": "uint256",
              "name": "duration",
              "type": "uint256"
            },
            {
              "internalType": "address",
              "name": "bookedBy",
              "type": "address"
            },
            {
              "internalType": "uint256",
              "name": "pricePerHour",
              "type": "uint256"
            },
            {
              "internalType": "uint256",
              "name": "id",
              "type": "uint256"
            }
          ],
          "internalType": "struct Car.CarStruct[]",
          "name": "",
          "type": "tuple[]"
        }
      ],
      "stateMutability": "view",
      "type": "function"
    },
    {
      "inputs": [],
      "name": "isOwner",
      "outputs": [
        {
          "internalType": "bool",
          "name": "",
          "type": "bool"
        }
      ],
      "stateMutability": "view",
      "type": "function"
    }
  ],
  "bytecode": "0x608060405234801561001057600080fd5b50336000806101000a81548173ffffffffffffffffffffffffffffffffffffffff021916908373ffffffffffffffffffffffffffffffffffffffff160217905550611bd9806100606000396000f3fe6080604052600436106100705760003560e01c8063c3d97a271161004e578063c3d97a27146100f9578063d2d50bd814610124578063e00680521461014d578063f7746e361461018a57610070565b8063551ab3cf146100755780638f32d59b14610091578063b3d81929146100bc575b600080fd5b61008f600480360381019061008a9190610f3a565b6101ce565b005b34801561009d57600080fd5b506100a661046a565b6040516100b39190610f95565b60405180910390f35b3480156100c857600080fd5b506100e360048036038101906100de9190610fb0565b6104c1565b6040516100f0919061126c565b60405180910390f35b34801561010557600080fd5b5061010e6108d9565b60405161011b919061129d565b60405180910390f35b34801561013057600080fd5b5061014b600480360381019061014691906113ed565b6108df565b005b34801561015957600080fd5b50610174600480360381019061016f9190610f3a565b610abe565b6040516101819190611544565b60405180910390f35b34801561019657600080fd5b506101b160048036038101906101ac919061155f565b610b0b565b6040516101c59897969594939291906115e5565b60405180910390f35b60004290506000603c80846101e391906116a7565b6101ed91906116a7565b9050600081836101fd9190611701565b90506000349050838211610246576040517f08c379a000000000000000000000000000000000000000000000000000000000815260040161023d906117a3565b60405180910390fd5b600060016000888152602001908152602001600020905085816006015461026d91906116a7565b82146102ae576040517f08c379a00000000000000000000000000000000000000000000000000000000081526004016102a59061180f565b60405180910390fd5b848482600301546102bf9190611701565b1115610300576040517f08c379a00000000000000000000000000000000000000000000000000000000081526004016102f79061187b565b60405180910390fd5b60008054906101000a900473ffffffffffffffffffffffffffffffffffffffff1673ffffffffffffffffffffffffffffffffffffffff166108fc839081150290604051600060405180830381858888f19350505050158015610366573d6000803e3d6000fd5b50338160050160006101000a81548173ffffffffffffffffffffffffffffffffffffffff021916908373ffffffffffffffffffffffffffffffffffffffff1602179055508581600401819055508481600301819055506103ff6040518060400160405280601c81526020017f63617220626f6f6b6564207769746820636172206964206173202573000000008152508260070154610d0b565b3373ffffffffffffffffffffffffffffffffffffffff167f885ac27da62cad5c9244867b153b9a64146620bed9b5efaedbd7646c850004988883600301548588866000018760020160405161045996959493929190611990565b60405180910390a250505050505050565b60008060009054906101000a900473ffffffffffffffffffffffffffffffffffffffff1673ffffffffffffffffffffffffffffffffffffffff163373ffffffffffffffffffffffffffffffffffffffff1614905090565b606060008367ffffffffffffffff8111156104df576104de6112c2565b5b60405190808252806020026020018201604052801561051857816020015b610505610dd0565b8152602001906001900390816104fd5790505b50905060005b600254861115801561052f57508481105b1561081c5783603c80600160008a81526020019081526020016000206004015461055991906116a7565b61056391906116a7565b60016000898152602001908152602001600020600301546105849190611701565b116108095760016000878152602001908152602001600020604051806101000160405290816000820180546105b8906118ca565b80601f01602080910402602001604051908101604052809291908181526020018280546105e4906118ca565b80156106315780601f1061060657610100808354040283529160200191610631565b820191906000526020600020905b81548152906001019060200180831161061457829003601f168201915b5050505050815260200160018201805461064a906118ca565b80601f0160208091040260200160405190810160405280929190818152602001828054610676906118ca565b80156106c35780601f10610698576101008083540402835291602001916106c3565b820191906000526020600020905b8154815290600101906020018083116106a657829003601f168201915b505050505081526020016002820180546106dc906118ca565b80601f0160208091040260200160405190810160405280929190818152602001828054610708906118ca565b80156107555780601f1061072a57610100808354040283529160200191610755565b820191906000526020600020905b81548152906001019060200180831161073857829003601f168201915b5050505050815260200160038201548152602001600482015481526020016005820160009054906101000a900473ffffffffffffffffffffffffffffffffffffffff1673ffffffffffffffffffffffffffffffffffffffff1673ffffffffffffffffffffffffffffffffffffffff168152602001600682015481526020016007820154815250508282815181106107ef576107ee6119ff565b5b6020026020010181905250808061080590611a2e565b9150505b858061081490611a2e565b96505061051e565b60008167ffffffffffffffff811115610838576108376112c2565b5b60405190808252806020026020018201604052801561087157816020015b61085e610dd0565b8152602001906001900390816108565790505b50905060005b828110156108cb57838181518110610892576108916119ff565b5b60200260200101518282815181106108ad576108ac6119ff565b5b602002602001018190525080806108c390611a2e565b915050610877565b508093505050509392505050565b60025481565b3373ffffffffffffffffffffffffffffffffffffffff1660008054906101000a900473ffffffffffffffffffffffffffffffffffffffff1673ffffffffffffffffffffffffffffffffffffffff161461096d576040517f08c379a000000000000000000000000000000000000000000000000000000000815260040161096490611ac2565b60405180910390fd5b6002600081548092919061098090611a2e565b91905055506040518061010001604052808581526020018481526020018381526020016000815260200160008152602001600073ffffffffffffffffffffffffffffffffffffffff1681526020018281526020016002548152506001600060025481526020019081526020016000206000820151816000019080519060200190610a0b929190610e2b565b506020820151816001019080519060200190610a28929190610e2b565b506040820151816002019080519060200190610a45929190610e2b565b50606082015181600301556080820151816004015560a08201518160050160006101000a81548173ffffffffffffffffffffffffffffffffffffffff021916908373ffffffffffffffffffffffffffffffffffffffff16021790555060c0820151816006015560e0820151816007015590505050505050565b610ac6610eb1565b60008284610ad49190611b11565b905060008385610ae49190611b42565b90506000604051806040016040528084815260200183815250905080935050505092915050565b6001602052806000526040600020600091509050806000018054610b2e906118ca565b80601f0160208091040260200160405190810160405280929190818152602001828054610b5a906118ca565b8015610ba75780601f10610b7c57610100808354040283529160200191610ba7565b820191906000526020600020905b815481529060010190602001808311610b8a57829003601f168201915b505050505090806001018054610bbc906118ca565b80601f0160208091040260200160405190810160405280929190818152602001828054610be8906118ca565b8015610c355780601f10610c0a57610100808354040283529160200191610c35565b820191906000526020600020905b815481529060010190602001808311610c1857829003601f168201915b505050505090806002018054610c4a906118ca565b80601f0160208091040260200160405190810160405280929190818152602001828054610c76906118ca565b8015610cc35780601f10610c9857610100808354040283529160200191610cc3565b820191906000526020600020905b815481529060010190602001808311610ca657829003601f168201915b5050505050908060030154908060040154908060050160009054906101000a900473ffffffffffffffffffffffffffffffffffffffff16908060060154908060070154905088565b610da38282604051602401610d21929190611b73565b6040516020818303038152906040527fb60e72cc000000000000000000000000000000000000000000000000000000007bffffffffffffffffffffffffffffffffffffffffffffffffffffffff19166020820180517bffffffffffffffffffffffffffffffffffffffffffffffffffffffff8381831617835250505050610da7565b5050565b60008151905060006a636f6e736f6c652e6c6f679050602083016000808483855afa5050505050565b6040518061010001604052806060815260200160608152602001606081526020016000815260200160008152602001600073ffffffffffffffffffffffffffffffffffffffff16815260200160008152602001600081525090565b828054610e37906118ca565b90600052602060002090601f016020900481019282610e595760008555610ea0565b82601f10610e7257805160ff1916838001178555610ea0565b82800160010185558215610ea0579182015b82811115610e9f578251825591602001919060010190610e84565b5b509050610ead9190610ed3565b5090565b6040518060400160405280600290602082028036833780820191505090505090565b5b80821115610eec576000816000905550600101610ed4565b5090565b6000604051905090565b600080fd5b600080fd5b6000819050919050565b610f1781610f04565b8114610f2257600080fd5b50565b600081359050610f3481610f0e565b92915050565b60008060408385031215610f5157610f50610efa565b5b6000610f5f85828601610f25565b9250506020610f7085828601610f25565b9150509250929050565b60008115159050919050565b610f8f81610f7a565b82525050565b6000602082019050610faa6000830184610f86565b92915050565b600080600060608486031215610fc957610fc8610efa565b5b6000610fd786828701610f25565b9350506020610fe886828701610f25565b9250506040610ff986828701610f25565b9150509250925092565b600081519050919050565b600082825260208201905092915050565b6000819050602082019050919050565b600081519050919050565b600082825260208201905092915050565b60005b8381101561106957808201518184015260208101905061104e565b83811115611078576000848401525b50505050565b6000601f19601f8301169050919050565b600061109a8261102f565b6110a4818561103a565b93506110b481856020860161104b565b6110bd8161107e565b840191505092915050565b6110d181610f04565b82525050565b600073ffffffffffffffffffffffffffffffffffffffff82169050919050565b6000611102826110d7565b9050919050565b611112816110f7565b82525050565b6000610100830160008301518482036000860152611136828261108f565b91505060208301518482036020860152611150828261108f565b9150506040830151848203604086015261116a828261108f565b915050606083015161117f60608601826110c8565b50608083015161119260808601826110c8565b5060a08301516111a560a0860182611109565b5060c08301516111b860c08601826110c8565b5060e08301516111cb60e08601826110c8565b508091505092915050565b60006111e28383611118565b905092915050565b6000602082019050919050565b600061120282611003565b61120c818561100e565b93508360208202850161121e8561101f565b8060005b8581101561125a578484038952815161123b85826111d6565b9450611246836111ea565b925060208a01995050600181019050611222565b50829750879550505050505092915050565b6000602082019050818103600083015261128681846111f7565b905092915050565b61129781610f04565b82525050565b60006020820190506112b2600083018461128e565b92915050565b600080fd5b600080fd5b7f4e487b7100000000000000000000000000000000000000000000000000000000600052604160045260246000fd5b6112fa8261107e565b810181811067ffffffffffffffff82111715611319576113186112c2565b5b80604052505050565b600061132c610ef0565b905061133882826112f1565b919050565b600067ffffffffffffffff821115611358576113576112c2565b5b6113618261107e565b9050602081019050919050565b82818337600083830152505050565b600061139061138b8461133d565b611322565b9050828152602081018484840111156113ac576113ab6112bd565b5b6113b784828561136e565b509392505050565b600082601f8301126113d4576113d36112b8565b5b81356113e484826020860161137d565b91505092915050565b6000806000806080858703121561140757611406610efa565b5b600085013567ffffffffffffffff81111561142557611424610eff565b5b611431878288016113bf565b945050602085013567ffffffffffffffff81111561145257611451610eff565b5b61145e878288016113bf565b935050604085013567ffffffffffffffff81111561147f5761147e610eff565b5b61148b878288016113bf565b925050606061149c87828801610f25565b91505092959194509250565b600060029050919050565b600081905092915050565b6000819050919050565b60006114d483836110c8565b60208301905092915050565b6000602082019050919050565b6114f6816114a8565b61150081846114b3565b925061150b826114be565b8060005b8381101561153c57815161152387826114c8565b965061152e836114e0565b92505060018101905061150f565b505050505050565b600060408201905061155960008301846114ed565b92915050565b60006020828403121561157557611574610efa565b5b600061158384828501610f25565b91505092915050565b600082825260208201905092915050565b60006115a88261102f565b6115b2818561158c565b93506115c281856020860161104b565b6115cb8161107e565b840191505092915050565b6115df816110f7565b82525050565b6000610100820190508181036000830152611600818b61159d565b90508181036020830152611614818a61159d565b90508181036040830152611628818961159d565b9050611637606083018861128e565b611644608083018761128e565b61165160a08301866115d6565b61165e60c083018561128e565b61166b60e083018461128e565b9998505050505050505050565b7f4e487b7100000000000000000000000000000000000000000000000000000000600052601160045260246000fd5b60006116b282610f04565b91506116bd83610f04565b9250817fffffffffffffffffffffffffffffffffffffffffffffffffffffffffffffffff04831182151516156116f6576116f5611678565b5b828202905092915050565b600061170c82610f04565b915061171783610f04565b9250827fffffffffffffffffffffffffffffffffffffffffffffffffffffffffffffffff0382111561174c5761174b611678565b5b828201905092915050565b7f506c656173652073656e64207468652076616c6964206475726174696f6e0000600082015250565b600061178d601e8361158c565b915061179882611757565b602082019050919050565b600060208201905081810360008301526117bc81611780565b9050919050565b7f496e76616c696420416d6f756e74210000000000000000000000000000000000600082015250565b60006117f9600f8361158c565b9150611804826117c3565b602082019050919050565b60006020820190508181036000830152611828816117ec565b9050919050565b7f436172206973206e6f7420617661696c61626c65000000000000000000000000600082015250565b600061186560148361158c565b91506118708261182f565b602082019050919050565b6000602082019050818103600083015261189481611858565b9050919050565b7f4e487b7100000000000000000000000000000000000000000000000000000000600052602260045260246000fd5b600060028204905060018216806118e257607f821691505b6020821081036118f5576118f461189b565b5b50919050565b60008190508160005260206000209050919050565b6000815461191d816118ca565b611927818661158c565b94506001821660008114611942576001811461195457611987565b60ff1983168652602086019350611987565b61195d856118fb565b60005b8381101561197f57815481890152600182019150602081019050611960565b808801955050505b50505092915050565b600060c0820190506119a5600083018961128e565b6119b2602083018861128e565b6119bf604083018761128e565b6119cc606083018661128e565b81810360808301526119de8185611910565b905081810360a08301526119f28184611910565b9050979650505050505050565b7f4e487b7100000000000000000000000000000000000000000000000000000000600052603260045260246000fd5b6000611a3982610f04565b91507fffffffffffffffffffffffffffffffffffffffffffffffffffffffffffffffff8203611a6b57611a6a611678565b5b600182019050919050565b7f596f7520617265206e6f7420616c6c6f77656421000000000000000000000000600082015250565b6000611aac60148361158c565b9150611ab782611a76565b602082019050919050565b60006020820190508181036000830152611adb81611a9f565b9050919050565b7f4e487b7100000000000000000000000000000000000000000000000000000000600052601260045260246000fd5b6000611b1c82610f04565b9150611b2783610f04565b925082611b3757611b36611ae2565b5b828204905092915050565b6000611b4d82610f04565b9150611b5883610f04565b925082611b6857611b67611ae2565b5b828206905092915050565b60006040820190508181036000830152611b8d818561159d565b9050611b9c602083018461128e565b939250505056fea2646970667358221220666ac5549918dcf2d0bb55ed9bff927417a2930d873f4822a12fa444f6d0c8b364736f6c634300080d0033",
  "linkReferences": {},
  "deployedLinkReferences": {}
}